:020000040800F2
:100000001807002089010008FD070008FF07000805
:1000100003080008070800080B080008000000009B
:100020000000000000000000000000000F080008B1
:100030001108000800000000130800081508000857
:10004000A3010008A3010008A3010008A301000800
:10005000A3010008A3010008A3010008A3010008F0
:10006000A3010008A3010008A3010008A3010008E0
:10007000A3010008A3010008A3010008A3010008D0
:10008000A3010008A3010008A3010008A3010008C0
:10009000ED170008A3010008A3010008A301000850
:1000A000A3010008A3010008A3010008A3010008A0
:1000B00091180008B91900080B1A0008A3010008DC
:1000C000A3010008A3010008A3010008A301000880
:1000D000A3010008A3010008A3010008A301000870
:1000E000A3010008A3010008A301000800F002F822
:1000F00000F03AF80AA090E8000C82448344AAF188
:100100000107DA4501D100F02FF8AFF2090EBAE885
:100110000F0013F0010F18BFFB1A43F0010318473B
:1001200098420000B8420000103A24BF78C878C155
:10013000FAD8520724BF30C830C144BF04680C60ED
:10014000704700000023002400250026103A28BF35
:1001500078C1FBD8520728BF30C148BF0B60704739
:100160001FB51FBD10B510BD04F0ECF81146FFF728
:10017000F7FF00F0E9FA04F00AF903B4FFF7F2FF21
:1001800003BC04F011F90000094880470948004702
:10019000FEE7FEE7FEE7FEE7FEE7FEE7FEE7FEE737
:1001A000FEE7FEE704480549054A064B7047000094
:1001B000EF410008ED00000818010020180700209A
:1001C000180300201803002010B501F0EBFE4FF4D7
:1001D000803001F007FF01F044FF0446012C28D1D4
:1001E000002001F084FFA00201F08AFF002001F04E
:1001F00090FF4FF4404001F0A7FF022003F0AAFC5B
:10020000102003F0BBFC4FF4E011200401F052FF7A
:10021000012001F05BFF00BF392001F006FF00283C
:10022000FAD0022001F055FF00BF01F05BFF082863
:10023000FBD101213C2002F023F80121084602F005
:100240001FF80121480602F028F80121C80202F037
:1002500017F80121084602F020F80121022002F0DF
:100260001CF80121042002F018F810BD10B545F269
:10027000555001F077FE032001F077FE40F2E24096
:1002800001F076FE01F077FE01F07AFE10BD08B5B0
:100290004FF6FF70ADF8000003208DF80200042037
:1002A0008DF803006946FE4801F00EFD4FF6FF7021
:1002B000ADF8000003208DF8020004208DF8030043
:1002C0006946F84801F000FD4FF6FF70ADF80000F8
:1002D00003208DF8020004208DF803006946F248DF
:1002E00001F0F2FC4FF6FF70ADF8000003208DF82E
:1002F000020004208DF803006946EC4801F0E4FC9C
:100300004FF60240ADF8000003208DF802004820AF
:100310008DF803006946E34801F0D6FC4FF4707095
:10032000ADF8000003208DF8020048208DF803008E
:100330006946DD4801F0C8FC4FF60241D94801F09A
:1003400070FD4FF47071D84801F06BFDFF20ADF8DF
:10035000000003208DF8020010208DF8030069468C
:10036000CF4801F0B1FC0E20ADF8000003208DF85D
:10037000020010208DF803006946CB4801F0A4FC70
:10038000FF21C74801F04DFD0E21C74801F049FD8E
:100390004020ADF8000003208DF8020010208DF8F9
:1003A00003006946BF4801F08FFC4FF4E050ADF800
:1003B000000003208DF8020010208DF8030069462C
:1003C000B94801F081FC0420ADF8000003208DF84D
:1003D000020010208DF803006946B44801F074FC57
:1003E0004021B04801F01DFD4FF4E051AE4801F04E
:1003F00018FD0421AD4801F014FD4FF48070ADF8F4
:10040000000003208DF8020010208DF803006946DB
:10041000A34801F059FC4FF44040ADF80000032020
:100420008DF8020010208DF8030069469E4801F007
:100430004BFC4FF480719A4801F0F3FC4FF44041BB
:10044000994801F0EEFC0120ADF8000003208DF882
:10045000020048208DF803006946924801F034FC00
:100460003020ADF8000003208DF8020048208DF800
:10047000030069468C4801F027FC0121894801F0FE
:10048000D0FC3021884801F0CCFC0120ADF8000000
:1004900003208DF8020010208DF803006946824881
:1004A00001F012FC0121804801F0BDFC4FF4006016
:1004B000ADF8000003208DF8020048208DF80300FD
:1004C0006946774801F000FC4FF48050ADF8000019
:1004D00003208DF8020018208DF80300694670484B
:1004E00001F0F2FB08BD0EB5714801F02DFF684622
:1004F00002F04EF800208DF8060001208DF807006C
:1005000000208DF808008DF809008DF80A008DF89C
:100510000B008DF802008DF8030005208DF8040013
:1005200000208DF805000920ADF8000069466048FC
:1005300001F023FF012202215D4802F0A7FA0EBD5F
:100540001FB500208DF80A008DF80B0001208DF8F2
:100550000C000020ADF80000ADF8020046F6FF7078
:10056000ADF804004FF6FF70ADF806000020ADF8BE
:10057000080001208DF80D00684601F088FF012079
:100580008DF80A0000208DF80B0001208DF80C007A
:100590006020ADF800000020ADF8020046F6FF70C4
:1005A000ADF804004FF6FF70ADF806000020ADF87E
:1005B000080001208DF80D00684601F068FF012257
:1005C00002213B4802F062FA1FBD08B54FF4A0605B
:1005D00001F0ACFA14208DF8000003208DF8010022
:1005E00001208DF802008DF80300684601F0A3FA9F
:1005F0001C208DF8000000208DF8010001208DF8EE
:1006000002008DF80300684601F095FA1D208DF870
:10061000000001208DF801008DF802008DF8030024
:10062000684601F088FA1E208DF8000002208DF83F
:10063000010001208DF802008DF80300684601F0EA
:100640007AFA08BD0EB54FF0804002F075FBC72066
:10065000ADF8040048F69F40ADF800000020ADF86A
:100660000600ADF8020069464FF0804002F038FC09
:100670000121880703F056FA01221146900702F083
:10068000A6FF0121880702F087FF0A4802F054FB09
:10069000C720ADF804002320ADF8000000200BE0D7
:1006A00000080140000C014000100140001401400E
:1006B0000064004000040040ADF80600ADF8020000
:1006C00069464A4802F00CFC0121484803F02AFA26
:1006D00001221146454802F07AFF454802F02CFB02
:1006E0001320ADF8040048F69F40ADF8000000204C
:1006F000ADF80600ADF8020069463D4802F0F0FB97
:1007000001213B4803F00EFA01221146384802F05D
:100710005EFF0121364802F03FFF0EBD0020354943
:100720000870C8700871487388728871C8734872FD
:10073000087208740120887008734871C871C87203
:10074000487000208873704703F051FDFFF73CFDAF
:10075000FFF79DFDFFF739FF482001F091F94FF4B5
:10076000FA7001F0A7F9FFF7BEFEFFF7E9FEFFF709
:10077000D5FFFFF767FF37E01E48407820B1002023
:100780001C49487000F072F91A48007C20B100F052
:100790004BFC0020174908741648007940B100202E
:1007A0001449087100F0D1FE00F018FF00F0E2FFDC
:1007B0001048807930B100200E4988710E480078C9
:1007C00000F02AF80B48007B20B10020094908738B
:1007D00000F0FAFD0748407B10B1012000F02AFC30
:1007E00000F0E2FD00F0E2FFC6E700000004004078
:1007F000000800409400002009000020704700BF5E
:10080000FEE700BFFEE700BFFEE700BFFEE7704760
:10081000704770477047000010B5044603F0B9F9FF
:10082000F84803F0FBF92146F64803F0FAFA03F022
:10083000BCF910BDF349087870472DE9F04F87B037
:1008400007460E460024002006904FF0830BEE482A
:100850000078152806D0162806D0192806D01A28A0
:1008600008D105E0152506E0162504E0192502E06B
:100870001A2500E000BF00BF4FEA152905F0FF0A66
:10088000CDF804B000208DF80C008DF80D00082E76
:1008900019DC002E17DDF01CC0B28DF80E00002010
:1008A0008DF80F008DF810A08DF81190002407E04E
:1008B00017F8012B0DF10F00E11C4254601C84B2AB
:1008C000B442F5DB02E000208DF80E0001A9CF480C
:1008D00001F0CCFE804601E0601C84B24146CB486A
:1008E00001F05CFF012802D0B4F5FA6FF4DBB4F537
:1008F000FA6F05D14146C54801F095FF01200690E9
:10090000069807B0BDE8F08F2DE9F04F85B004469A
:100910000025AB46BE48807801287CD04FF0830A82
:10092000B9480078152806D0162806D0192806D010
:100930001A2808D105E0152606E0162604E0192637
:1009400002E01A2600E000BF00BF4FEA162806F0BA
:10095000FF09CDF800A000208DF808008DF80900EF
:1009600008208DF80A0001208DF80B008DF80C90FE
:100970008DF80D8014F8011B8DF80E1014F8011B72
:100980008DF80F1014F8011B8DF8101014F8011BCE
:100990008DF8111014F8011B8DF8121069469B4850
:1009A00001F064FE074604E06946984801F05EFEE7
:1009B0000746042FF8D001E0681C85B239469348F9
:1009C00001F0ECFE012802D0B5F5FA6FF4DBB5F5C5
:1009D000FA6F05D139468D4801F025FF4FF0010B24
:1009E00008208DF80A0003208DF80B008DF80C907C
:1009F0008DF80D8014F8011B8DF80E1014F8011BF2
:100A00008DF80F1014F8011B8DF8101014F8011B4D
:100A10008DF8111000E025E014F8011B8DF812107C
:100A200069467A4801F022FE074604E069467748A5
:100A300001F01CFE0746042FF8D001E0681C85B2C7
:100A40003946724801F0AAFE012802D0B5F5FA6FC6
:100A5000F4DBB5F5FA6F05D139466C4801F0E3FED9
:100A60004FF0010B584605B0BDE8F08FF0B585B0EA
:100A70000024002640F28347009700208DF80800EC
:100A80008DF809008DF80A006946604801F0EEFD16
:100A9000054601E0601C84B229465C4801F07EFEF8
:100AA000012802D0B4F5FA6FF4DBB4F5FA6F04D183
:100AB0002946564801F0B7FE0126304605B0F0BD84
:100AC00070B500245348C47804F00F0552480078EC
:100AD00000F0110004F01101884207D004F0110069
:100AE0004D49087001204A49887102E000204849B8
:100AF00088714948007800F01000102806D10120C4
:100B000043494871C8714549887025E042480078DA
:100B100000F0100030B900203D494871C8713F49CC
:100B2000887019E03C48007800F0010028B10120ED
:100B3000374988733949C8700EE03748007800F0AB
:100B4000010028B90020324988733449C87003E095
:100B50000A21304803F0CCFB70BD10B500242D48AD
:100B6000C478AA2C05D10120294908722B490870A4
:100B70000BE0552C05D10020254908722749087043
:100B800003E00A21234803F0B3FB10BD10B5002495
:100B90002048C478AA2C05D101201D4948721F495C
:100BA00008700BE0552C05D10020194908721B492B
:100BB000087003E00A21174803F09AFB10BD10B536
:100BC00000241448C478AA2C03D101201349487189
:100BD00009E0552C03D100201049487103E00A2197
:100BE0000C4803F085FB10BD10B500240948C478FB
:100BF000AA2C15D1012009490871002088710449E7
:100C0000C87327E000F801080800002000640040D5
:100C1000940000205C00002009000020A5000020B6
:100C2000552C13D10020F94908712021F84801F012
:100C3000DEF828B90120F5498871F649C87309E042
:100C40000020F2498871F349C87303E00A21F24891
:100C500003F04EFB10BD10B50024EF48C478AA2C59
:100C600003D10120E949487409E0552C03D1002043
:100C7000E649487403E00A21E74803F039FB10BD58
:100C8000E248007CE5490870E048407C4870DF4855
:100C9000807C8870DD48C079C870DC48007A0871B3
:100CA000DA48407A4871D948807A8871D748C07A42
:100CB000C871D648007B0872D448407B4872D3483C
:100CC000807B8872D148C07BC872704710B5002401
:100CD000D148C478082C08DD112C06DA0120CB4954
:100CE0000874A4F10800C4B202E00020C7490874E7
:100CF000012C03D10120C549087202E00020C3493C
:100D00000872022C03D10120C049487202E0002081
:100D1000BE494872032C03D10120BC49887202E00D
:100D20000020BA498872042C03D10120B749C87247
:100D300002E00020B549C872052C03D10120B34957
:100D4000087302E00020B1490873062C03D101208A
:100D5000AE49487302E00020AC494873072C03D128
:100D60000120AA49887302E00020A8498873082C52
:100D700003D10120A549C87302E00020A349C8732C
:100D8000FFF77EFF0A21A44803F0B2FA10BD10B5A8
:100D90000024A148C478AA2C03D101209B49C87122
:100DA00009E0552C03D100209849C87103E00A21BD
:100DB000994803F09DFA10BD10B500249648C478F8
:100DC000AA2C05D1012091498874FFF759FF0BE047
:100DD000552C05D100208D498874FFF751FF03E0A1
:100DE0000A218D4803F084FA10BD10B510218848FF
:100DF00000F0FDFF30B9AA2089490870012083491D
:100E0000487105E055208649087000207F494871E7
:100E100015208449087001218148FFF70EFD10BD9F
:100E200010B520217A4800F0E2FF30B9AA207C49B1
:100E3000087001207549887105E0552078490870CF
:100E40000020724988711620764908700121744883
:100E5000FFF7F3FC10BD70B504460D46182C5CD2AC
:100E6000DFE804F05B0C11161B1F23272B2F3337F1
:100E70005B0D12173B3F43474B4F535700BF40207A
:100E8000674908704EE000BF80206549087049E05E
:100E900000BF00206249087044E0012060490870EA
:100EA00040E002205E4908703CE003205C49087085
:100EB00038E004205A49087034E005205849087089
:100EC00030E00620564908702CE00720544908708D
:100ED00028E008205249087024E009205049087091
:100EE00020E00A204E4908701CE00B204C49087095
:100EF00018E00C204A49087014E00D204849087099
:100F000010E00E20464908700CE00F20444908709C
:100F100008E010204249087004E00A213E4803F02E
:100F2000E7F900BF00BF35B93D48007800F0DF00A9
:100F30003B49087005E03A48007840F02000384905
:100F4000087019203749087001213548FFF775FCF2
:100F500070BD10B514203249087048701A2031490C
:100F6000087002212E48FFF768FC10BD2DE9F04102
:100F700005460E46002406E005F10B00005D2649FB
:100F80000855601CC4B2B442F6DB234840782249BD
:100F9000897840EA0127B7F5A27F20D009DC0B2F22
:100FA00011D0A7F2411088B1012812D0022825D112
:100FB00012E0A7F24510A8B1022816D0032817D0D6
:100FC00004281BD117E0FFF77BFD1CE0FFF7C5FDF0
:100FD00019E0FFF7DBFD16E0FFF7F1FD13E0FFF787
:100FE00003FE10E0FFF737FE0DE0FFF76FFE0AE0AB
:100FF000FFF7CDFE07E0FFF7DFFE04E00A21064819
:1010000003F076F900BF00BFBDE8F081A500002025
:1010100000100140940000205C00002088000020A7
:10102000660000200800002010B5F948817AFFF71B
:101030009DFF10BD10B50446002C52D00421F54888
:1010400000F0F1FE4021F44800F0EDFE0821F248E6
:1010500000F0E9FE0121F04800F0E5FE0421EF4830
:1010600000F0E1FE2021EC4800F0DDFE0421EA481A
:1010700000F0D9FE0821E94800F0D5FE0221E7483A
:1010800000F0D1FE0221E44800F0CDFE1021E2483C
:1010900000F0C9FE8021E04800F0C5FE4FF4805109
:1010A000DE4800F0C0FE4FF48061DC4800F0BBFE7B
:1010B0004021DB4800F0B7FE4FF40061D74800F054
:1010C000B2FE4FF48041D54800F0ADFE4FF4807180
:1010D000D14800F0A8FE4FF40041D04800F0A3FE34
:1010E00056E00421CB4800F09CFE4021CA4800F0A5
:1010F00098FE0821C84800F094FE0121C64800F07F
:1011000090FE0421C54800F08CFE2021C24800F06A
:1011100088FE0421C04800F084FE0821BF4800F08A
:1011200080FE0221BD4800F07CFE0221BA4800F09A
:1011300078FE1021B84800F074FE8021B64800F017
:1011400070FE4FF48051B54800F06BFE4FF48061A3
:10115000B24800F066FE4FF40061B04800F061FE56
:101160004021AF4800F05DFE4FF48041AB4800F0F5
:1011700058FE4FF48071A84800F053FE4FF4004130
:10118000A64800F04EFE0020A649C87308724872B7
:1011900010BD10B5A448007820B180219E4800F011
:1011A00042FE03E080219C4800F03BFE9E484078D0
:1011B00020B11021984800F036FE03E01021964837
:1011C00000F02FFE9848807820B10221924800F06C
:1011D0002AFE03E00221904800F023FE9248C078E6
:1011E00028B14FF400418D4800F01DFE04E04FF49B
:1011F00000418A4800F015FE8B48007920B140215B
:10120000854800F010FE03E04021834800F009FE0D
:101210008548407920B108217F4800F004FE03E0B2
:1012200008217D4800F0FDFD7F48807920B1012133
:10123000794800F0F8FD03E00121774800F0F1FD66
:101240007948C07920B10421744800F0ECFD03E036
:101250000421724800F0E5FD7348007A20B1202196
:101260006D4800F0E0FD03E020216B4800F0D9FD5F
:101270006D48407A20B10421674800F0D4FD03E0B6
:101280000421654800F0CDFD6748807A20B108212F
:10129000624800F0C8FD03E00821604800F0C1FD8D
:1012A0006148C07A20B102215C4800F0BCFD03E037
:1012B00002215A4800F0B5FD10BD10B55B4800781A
:1012C00028B14FF48051554800F0ADFD04E04FF4D3
:1012D0008051524800F0A5FD5448807828B14FF461
:1012E00080614E4800F09FFD04E04FF480614B4860
:1012F00000F097FD4D48C07828B14FF40061474891
:1013000000F091FD04E04FF40061444800F089FDD5
:101310004648007920B14021414800F084FD03E0B7
:1013200040213F4800F07DFD4048407928B14FF40E
:101330008071394800F077FD04E04FF48071364841
:1013400000F06FFD3948807928B14FF4804133486F
:1013500000F069FD04E04FF48041304800F061FD89
:101360003248407820B104212A4800F05CFD03E0B7
:101370000421284800F055FD10BD2A48807A90B11C
:101380002B480078401C2A49087008460078142829
:1013900009D1002008702548807808B9012000E0B4
:1013A00000202249887070472248007805280ADB0F
:1013B0000020204908701D48407808B9012000E04D
:1013C00000201A494870704710B5FFF7E2FEFFF79A
:1013D00074FF10BD184A10705170704770B5054603
:1013E0000C2D6ED2DFE805F0060C2A31373E454C55
:1013F00053595F6602210A4800F0F9FC044660E098
:101400004FF48061064800F0F2FC044659E0000009
:101410004800002000140140000801400010014075
:10142000000C01409400002088000020A50000204E
:1014300010000020040000200A0000204FF400618A
:10144000FE4800F0D4FC04463BE00121FB4800F0DC
:10145000CEFC044635E04FF48051F84800F0C7FC5C
:1014600004462EE04FF40051F44800F0C0FC04465E
:1014700027E04FF48041F14800F0B9FC044620E039
:101480004FF40041ED4800F0B2FC044619E0402161
:10149000EB4800F0ACFC044613E08021E84800F083
:1014A000A6FC04460DE04FF48071E54800F09FFC77
:1014B000044606E04FF40071E14800F098FC044651
:1014C00000BF00BF204670BD70B504460125DD4851
:1014D00000781F2804D0DB480078A04200D070BDFF
:1014E0002046FFF77BFF0546B5B9D748005D20BB16
:1014F000D648005D022809DBD24804700120D24999
:10150000085500212046FFF765FF1CE0CF48005D2D
:10151000401CCE49085516E0CB48005D012812D189
:10152000CA48005D50B91F20C64908700020C6494E
:10153000085501212046FFF74DFF04E0C348005D38
:10154000401EC249085500BFC9E710B51F20C04959
:10155000087002204870002404E02046FFF7B4FF22
:10156000601CC4B20C2CF8DB10BD70B504464CB93D
:101570001021B34800F03BFC08B9012000E0002036
:1015800005460AE0012C08D12021AD4800F02FFCCF
:1015900008B9012000E000200546AE4810F814000C
:1015A000A8421AD0AC48005D022811DB0020AA49ED
:1015B00008551DB9A74901F8140003E00120A54909
:1015C00001F814000120A34901EB4401487004E034
:1015D000A148005D401CA049085570BD10B500240D
:1015E00004E02046FFF7C1FF601CC4B2022CF8DB08
:1015F00010BD1F21994A927912B10022984B1A709E
:10160000934A1278002A49DB914A12780A2A45DC6B
:101610008F4A527892B90122904B9A72904A12786E
:10162000521C8F4B1A708A4A10788E4A125C0AB983
:10163000012200E000228B4B1A542FE0844A52789A
:10164000012A2BD1824A1078864A125C0AB90122FB
:1016500000E00022834B1A54C21ED0B2804A127896
:10166000C2F1040241FA02F202F00102824207D002
:1016700000227B4B1A70794B9A7201227A4B9A7036
:10168000774A1278042A09D10022784B1A80734BCA
:10169000DA719A72744B9A70714B1A70704710B568
:1016A0001F246B4800781F2848D000206F4908800D
:1016B000674800786B49085C08B9012000E0002009
:1016C00063490978674A50546148007878B960489E
:1016D000407801280BD16648007840B9644800780A
:1016E000401C6349087001205C49C87010BD5B480C
:1016F000C07878B1564800780C30C4B2544840786D
:1017000001280CD10020574908705449C870584925
:10171000087004E04E4804780020554908700C2CED
:1017200006D14B484078012808D14C49487305E060
:1017300024B1474841782046FFF78DFB00BFD5E72D
:1017400010B5002413E0434800EB4400407860B13A
:101750000020404901EB4401487014B9FFF745FBF4
:1017600003E0012C01D1FFF75BFB601CC4B2022C2B
:10177000E9DB10BD10B5FFF7E3FF3848C07A30B1A0
:1017800000203649C8720120C87137498870334833
:10179000C07920B1FFF72DFFFFF7EFFD05E02F48DF
:1017A000807B012801D0FFF77AFF10BD10B52B48D0
:1017B000007801280CD1002028490870084640799B
:1017C00098B10120C871887327498870C8700CE0EF
:1017D00022480078022808D1002020490870FFF72D
:1017E00004FBFFF71DFBFFF7B4FB10BD10B5002095
:1017F00020490860486008728872C874002405E0B7
:1018000000211C480B300155601CC4B2082CF7DBCA
:10181000184A0021184801F01EF81648007A68BBE3
:101820001448807A002802DD01200C490874114810
:10183000807A18BB0948807820B320E0000C014072
:1018400000100140110000207C00002070000020EA
:101850000A0000200C00002000000020940000205E
:101860001200002088000020A500002006000020B3
:1018700013000020480000200064004007E0022020
:10188000734908700020724988707249087010BD51
:1018900010B50121880702F048F900286AD001211B
:1018A000880702F053F96C480078C8280EDA6A48B5
:1018B0000078401C68490870084600780A2808D15A
:1018C0000020087001206249487002E0002062494F
:1018D000087060480078401C5E490870084600782F
:1018E0000C2806D15A48807818B901205849087048
:1018F00088705748C07860B158480078401C5749F4
:101900000870084600781E2803DB00200870504944
:10191000C8704F484079012814D14D48C07988B922
:101920004F480088401C4E4908800846008842F213
:101930002831884209DB00204949088001204449B8
:10194000C87202E000204649088046480078401CE2
:10195000444908703E48C07B10B343480078401C9F
:101960004149087008460078012804D101213F4808
:1019700001F012FE1FE03C480078032808D1002146
:101980003A4801F009FE0121394800F04CFA12E012
:10199000354800781E280EDB0020334908700AE025
:1019A0000021324801F0F8FD0121314800F03BFAF6
:1019B00000202D49087010BD10B501212B4802F000
:1019C000B4F808B30121294802F0C0F8294800788A
:1019D000401C2849087008460078012804D10121DC
:1019E000234800F01EFA0FE022480078032804D1B3
:1019F00001211F4800F017FA06E01E48007806286B
:101A000002D100201B49087010BD10B501211A48F1
:101A100002F08BF8D8B10121174802F097F80120A5
:101A20000B4908710846407B70B114480088401C7F
:101A30001249088008460088B0F5967F07DB002031
:101A400008800349487302E001200149087310BD72
:101A50009400002002000020140000200300002059
:101A600006000020040000201500002000040040B3
:101A7000001001401600002000080040180000205F
:101A800010B504466FF0040000F09FF8E11704EB76
:101A90005171C1F3C701234A11701046007800EB61
:101AA0004001C1EBC0104FF6FF7101EAC0001E49B2
:101AB000088010BD01461C4A12884A434FF0E023BB
:101AC0005A6100229A6101221A6100BF4FF0E022A0
:101AD000106900F001021AB100F48032002AF5D03A
:101AE00000224FF0E0231A619A61704701460D4AC7
:101AF00012784A434FF0E0235A6100229A61012292
:101B00001A6100BF4FF0E022106900F001021AB123
:101B100000F48032002AF5D000224FF0E0231A6151
:101B20009A6170471A0000201C00002031490143CF
:101B3000314A1160704770B5002100230F22C4782C
:101B400004B32D4C246804F4E064C4F5E064210A75
:101B5000C1F10403CA40447804FA03F184781440C4
:101B600021430901254C0678A155047804F01F058E
:101B70000124AC4005786D11AD0005F1E025C5F8F4
:101B8000004109E0047804F01F050124AC401C4D1D
:101B90000678761145F8264070BD1A4A0A4002437D
:101BA000154B1B1F1A60704739B1134A121D12687A
:101BB0000243114B1B1D1A6006E00F4A121D1268EA
:101BC00082430D4B1B1D1A607047042808D14FF04B
:101BD000E021096941F004014FF0E022116107E0C2
:101BE0004FF0E021096921F004014FF0E02211617A
:101BF000704700000000FA050CED00E000E400E092
:101C000080E100E080FFFF1F10B50446CC4884420D
:101C100008D10121042000F04DFB0021042000F038
:101C200049FB46E0C748844208D10121082000F062
:101C300041FB0021082000F03DFB3AE0C24884420D
:101C400008D10121102000F035FB0021102000F008
:101C500031FB2EE0BD48844208D10121202000F054
:101C600029FB0021202000F025FB22E0B848844217
:101C700008D10121402000F01DFB0021402000F090
:101C800019FB16E0B348844208D10121802000F0FE
:101C900011FB0021802000F00DFB0AE0AE488442D9
:101CA00007D10121801500F005FB0021A01500F0EF
:101CB00001FB10BD10B50121084600F0FBFA002120
:101CC000012000F0F7FA10BD2DE9F0410246002591
:101CD0000026002000230024002791F803C00CF008
:101CE0000F0591F803C00CF0100CBCF1000F03D0ED
:101CF00091F802C04CEA050591F800C0BCF1000F54
:101D000031D0146800202BE04FF0010C0CFA00F3E6
:101D1000B1F800C00CEA03069E4220D183004FF0C8
:101D20000F0C0CFA03F7BC4305FA03FC4CEA04045D
:101D300091F803C0BCF1280F06D14FF0010C0CFA4A
:101D400000FCC2F814C00AE091F803C0BCF1480FCF
:101D500005D14FF0010C0CFA00FCC2F810C0401C79
:101D60000828D1D31460B1F800C0BCF1FF0F34DDF6
:101D7000546800202EE000F1080C4FF0010808FA2A
:101D80000CF3B1F800C00CEA03069E4221D1830097
:101D90004FF00F0C0CFA03F7BC4305FA03FC4CEAB6
:101DA000040491F803C0BCF1280F05D100F1080C20
:101DB00008FA0CF8C2F8148091F803C0BCF1480F7F
:101DC00007D100F1080C4FF0010808FA0CF8C2F82E
:101DD0001080401C0828CED35460BDE8F0814FF637
:101DE000FF710180022181700421C1707047024699
:101DF000002093680B400BB1012000E000207047E9
:101E00000146886880B2704702460020D3680B40C4
:101E10000BB1012000E0002070470146C86880B285
:101E2000704701617047416170470AB1016100E08C
:101E300041617047C16070474FF480320A4382614C
:101E40008161826182698269704702460020434B4A
:101E500018684FF68073184040EA021008433F4B61
:101E6000186070473E49C8617047F0B50A460023C4
:101E700000240021002500F00046B6F1004F02D1F9
:101E8000364EF16901E0354E7168C0F3034583B207
:101E900000F44016B6F5401F08D121F070612F4EB6
:101EA000766826F070662D4F7E6012E000F4801692
:101EB000B6F5801F06D1032606FA05F4A14341F0CA
:101EC000706106E0460D360103FA06F6B14341F0B3
:101ED000706122B1460D360103FA06F6314300F077
:101EE0000046B6F1004F02D11C4EF16101E01B4EDD
:101EF0007160F0BD30B500228B071C0F0F2303FA71
:101F000004F2164B08338C1053F824309343134CCF
:101F100008348D1044F8253023468C1053F82430B3
:101F20008C07240F00FA04F423430C4C08348D1062
:101F300044F8253030BD0A49DC31086070470000A4
:101F400000080140000C0140001001400014014055
:101F500000180140001C0140002001400000014029
:101F6000000020420E49086070470D4948607047E4
:101F70000B49886070474AF6AA20094908607047F3
:101F80004CF6CC4006490860704701460020044AE0
:101F9000D2680A400AB1012000E00020704700002A
:101FA00000300040DF48006840F00100DD49086073
:101FB00008464068DC490840DA494860084600683D
:101FC000DA490840D74908600846006820F48020B4
:101FD00008600846406820F4FE0048604FF41F0087
:101FE00088607047CF49096821F48031CD4A11607B
:101FF0001146096821F480211160B0F5803F03D0BB
:10200000B0F5802F0ED106E0C649096841F4803151
:10201000C44A116007E0C349096841F4A021C14ADC
:10202000116000E000BF00BF704710B501460022FC
:10203000002300204A11012A02D1BA4C236806E08D
:10204000022A02D1B74C236A01E0B64C636A01F060
:102050001F02012494401C400CB1012000E000202C
:1020600010BD38B5002000900024002500BF3120AD
:10207000FFF7DBFF05460098401C00900098B0F584
:10208000A06F01D0002DF2D03120FFF7CEFF08B1B4
:10209000012400E00024204638BD01460020A14A6A
:1020A000106820F0F80040EAC10010607047A049B5
:1020B00008607047024600209A4B586820F47C1054
:1020C00042EA01031843974B5860704798490866E5
:1020D000704701460020934A506820F003000843EF
:1020E000506070478F48406800F00C007047014610
:1020F00000208C4A506820F0F00008435060704780
:1021000001460020874A506820F4E0600843506090
:10211000704701460020834A506820F4605040EA2E
:10212000C1005060704729B17E4A527A02437D4B0C
:102130005A7204E07B4A527A82437A4B5A72704751
:102140007B49D8310860704701460020754A5068C5
:1021500020F440400843506070470021714A20320B
:102160001170704A82F82010012802D004280AD188
:1021700004E001216B4A2032117005E00521694A13
:102180002032117000E000BF00BF7047694908604D
:1021900070476449096A0143624A116270476549A0
:1021A00044390860704730B5002100220024002324
:1021B0005C4D6D6805F00C0121B1042905D008299A
:1021C00023D105E05C4D056022E05B4D05601FE01A
:1021D000544D6D6805F47012524D6D6805F48034ED
:1021E000022505EB92421CB9544D554305600BE0A6
:1021F0004C4D6D6805F400351DB1504D55430560DB
:1022000002E04D4D5543056002E04B4D056000BFB7
:1022100000BF444D6D6805F0F0010909484D6B5C45
:102220000568DD4045603F4D6D6805F4E061090AD1
:10223000434D6B5C4568DD4085603A4D6D6805F443
:102240006051C90A3E4D6B5C4568DD40C560354D47
:102250006D6805F44041890B3A4D6B5CC568B5FB70
:10226000F3F5056130BD29B12E4A526902432D4B69
:102270005A6104E02B4A526982432A4B5A617047E3
:1022800029B1284A92690243264B9A6104E0254A03
:1022900092698243234B9A61704729B1214AD269DE
:1022A0000243204BDA6104E01E4AD26982431D4B8F
:1022B000DA61704729B11B4AD2680243194BDA60D0
:1022C00004E0184AD2688243164BDA60704729B19D
:1022D000144A12690243134B1A6104E0114A12694D
:1022E0008243104B1A6170471249403908607047A9
:1022F0000F49C86470470B49C87170470948406A64
:1023000040F0807007494862704701460020054A46
:1023100092680A400AB1012000E00020704701499C
:1023200088727047001002400000FFF8FFFFF6FEC1
:10233000000042428004424200127A0000093D003F
:102340001E0000202E00002010B50446FE488442E6
:1023500009D101214806FFF7BAFF00214FF00070B4
:10236000FFF7B5FF08E001218806FFF7B0FF002165
:102370004FF08060FFF7ABFF10BD30B50246002084
:102380000023146824F002041460146844F001046B
:10239000146000E05B1C546804F001041CB94FF6A3
:1023A000FF74A342F6D1546804F001040CB9002074
:1023B0006CE08C79012C04D1146844F08004146022
:1023C00003E0146824F080041460CC79012C04D15B
:1023D000146844F04004146003E0146824F04004DE
:1023E00014600C7A012C04D1146844F020041460A9
:1023F00003E0146824F0200414604C7A012C04D10A
:10240000146844F01004146003E0146824F010040D
:1024100014608C7A012C04D1146844F00804146010
:1024200003E0146824F008041460CC7A012C04D171
:10243000146844F00404146003E0146824F00404F5
:1024400014608C78A407CD7844EA05640D7944EAD9
:1024500005444D7944EA05540D886D1E2C43D46122
:10246000146824F001041460002300E05B1C54682D
:1024700004F001041CB14FF6FF74A342F6D1546876
:1024800004F001040CB1002000E0012030BD10B5C3
:102490000021837A012202FA03F1AC4A126842F069
:1024A0000102AA4B1A60A94A1C3212688A43A74B40
:1024B0001C331A60027BCAB9A44A0C3212688A43E0
:1024C000A24B0C331A604288C38842EA03439F4AF6
:1024D0004032847A42F834300288838842EA0343E7
:1024E0009A4A4032847A02EBC4025360027B012A8A
:1024F00019D1964A0C3212680A43944B0C331A6075
:102500004288038842EA0343904A4032847A42F880
:102510003430C288838842EA03438C4A4032847A4A
:1025200002EBC4025360C27A3AB9884A121D12689B
:102530008A43864B1B1D1A6006E0844A121D1268EE
:102540000A43824B1B1D1A60028932B97F4A14323A
:1025500012688A437D4B14331A600289012A06D11E
:102560007A4A143212680A43784B14331A60427B59
:10257000012A06D1754A1C3212680A43734B1C3378
:102580001A60724A126822F00102704B1A6010BD84
:1025900000218171C171017241728172C1728170B9
:1025A000C170032101710221417101210180704735
:1025B0006649096841F00101644A116011460968E1
:1025C00043F60E729143614A11601146096841EA6F
:1025D000002111601146096821F001011160704766
:1025E00021B1026842F48032026003E0026822F402
:1025F000803202607047E1B1026842F080020260FE
:102600004FF4C272125842F480734FF4C2721350E6
:102610004FF4CA72125842F480734FF4CA721350C6
:102620004FF4D272125842F480734FF4D2721350A6
:102630001BE0026822F0800202604FF4C27212585E
:1026400022F480734FF4C27213504FF4CA721258BE
:1026500022F480734FF4CA7213504FF4D27212589E
:1026600022F480734FF4D2721350704710B50246B3
:102670000020936803F08063B3F1806F00D110E015
:10268000936803F00063B3F1006F01D1012008E00B
:10269000936803F08053B3F1805F01D1022000E022
:1026A0000420042879D002F5C07303EB00131B68E3
:1026B00003F0010402F5C07303EB00131C600B7AF6
:1026C0007BB94B7A0C8843EA445302F5C07404EB9F
:1026D00000142468234302F5C07404EB0014236043
:1026E00010E00B7A4C6843EAC4034C7A234302F5AA
:1026F000C07404EB00142468234302F5C07404EB97
:10270000001423608B7A03F00F038B7202F5C07301
:1027100003EB00135B6823F00F0402F5C07303EBB7
:1027200000135C6002F5C07303EB00135B688C7AE6
:10273000234302F5C07404EB001463608B7B1C061A
:102740004B7B44EA034403E0006400400066004021
:102750000B7B44EA0323CC7A234302F5C07404EBD9
:102760000014A3608B7C1C064B7C44EA03440B7C66
:1027700044EA0323CC7B234302F5C07404EB00142A
:10278000E36002F5C07303EB00131B6843F0010420
:1027900002F5C07303EB00131C6010BD10B50246B8
:1027A000002321B1012907D002290FD109E0906847
:1027B000F94C00EA04030BE09068F84C00EA0403CB
:1027C00006E09068F64C00EA040301E0002300BF35
:1027D00000BFF44C181BA34216D007DC83B16FF086
:1027E0008060184470B1022818D111E0B0F5007F64
:1027F00010D0ED4C204448B1B0F5003F0ED10BE0B5
:1028000002230DE000230BE0002309E0002307E092
:10281000012305E0012303E0012301E0002300BFC1
:1028200000BFD8B210BD21B1012907D002290FD1B4
:1028300009E0826842F0800282600AE0826842F425
:102840000042826005E0826842F40002826000E09B
:1028500000BF00BF704710B500F5D87303EB01133C
:102860001B6803F004031372137A53B900F5D8738D
:1028700003EB01131B6840F2FF7404EA5353136027
:1028800009E000F5D87303EB01131B686FF0604497
:1028900004EAD303536000F5D87303EB01131B68FC
:1028A00003F00203537200F5D87303EB01135B6866
:1028B00003F00F03937200F5D87303EB01135B6809
:1028C0001B0AD37400F5D87303EB01139B68D37212
:1028D00000F5D87303EB01139B681C0A147300F511
:1028E000D87303EB01139B681C0C547300F5D87369
:1028F00003EB01139B681B0E937300F5D87303EB76
:102900000113DB68D37300F5D87303EB0113DB68A5
:102910001C0A147400F5D87303EB0113DB681C0C5C
:10292000547400F5D87303EB0113DB681B0E93742A
:1029300021B9C36843F02003C36003E0036943F097
:102940002003036110BD21B9C26842F02002C260B9
:1029500003E0026942F02002026170470246002053
:1029600019B9D36803F0030006E0012903D1136904
:1029700003F0030000E00020704710B502460B464C
:1029800000204FF6FF71BBB9146824F0020444F034
:102990000104146000E0491E546804F00304012C93
:1029A00001D00029F7D1546804F00304012C01D0B0
:1029B000002032E0012030E0012B13D1146824F014
:1029C0000304146000E0491E546804F003040CB1D1
:1029D0000029F8D1546804F003040CB100201CE075
:1029E00001201AE0022B17D1146824F0010444F0EE
:1029F0000204146000E0491E546804F00304022C31
:102A000001D00029F7D1546804F00304022C01D04E
:102A1000002002E0012000E0002010BD014600205F
:102A20000A6822F0010242F002020A604A6802F0DB
:102A30000302022A00D10120704701464FF6FF72BF
:102A400000200B6823F002030B6000E0521E4B686D
:102A500003F00203022B01D1002AF7D14B6803F0E7
:102A60000203022B00D001207047014600208A6932
:102A700002F070007047014600208A69100E70470E
:102A8000014600208A69C2F3074070471AB14369C2
:102A90000B43436102E043698B434361704710B5C8
:102AA0000246002001F4700343B19369C1F313049B
:102AB00023400BB101202DE000202BE001F08073BA
:102AC00043B15368C1F3130423400BB1012021E04B
:102AD00000201FE001F0006343B19368C1F31304C9
:102AE00023400BB1012015E0002013E001F000733A
:102AF00043B1D368C1F3130423400BB1012009E0B3
:102B0000002007E01369C1F3130423400BB1012037
:102B100000E0002010BD0022244B994202D1002386
:102B2000836111E0C1F3130201F000730BB1C260C5
:102B30000AE001F080630BB1026105E001F000637F
:102B40000BB1826000E0426070470246002002EA5A
:102B500001030BB1012000E00020704770B504466E
:102B60000D46002660692840002872D0B5F5807FA8
:102B700069D01DDC082D42D006DC012D2DD0022DA0
:102B800031D0042D7FD134E0102D3ED0202D42D005
:102B9000402D78D145E00000030000040003000848
:102BA00000000310000100080001FFF77000F03082
:102BB000B5F5004F61D009DCB5F5007F4AD0B5F519
:102BC000806F4DD0B5F5006F5DD150E0B5F5803F19
:102BD0002DD0B5F5003F56D12FE0A0685549FFF73D
:102BE000B4FF064651E0E0680321FFF7AEFF06465A
:102BF0004BE0E0680821FFF7A8FF064645E0E068E3
:102C00001021FFF7A2FF06463FE020690321FFF7EE
:102C10009CFF064639E020690821FFF796FF06462B
:102C200033E020691021FFF790FF06462DE0606831
:102C30000821FFF78AFF064627E060681021FFF7AA
:102C400084FF064621E0A0690121FFF77EFF0646CA
:102C50001BE01BE0A0690221FFF777FF064614E0A6
:102C6000A0690421FFF771FF06460EE00BE0A069A2
:102C70007021FFF76AFF064607E060680421FFF74E
:102C800064FF064601E0002600BF00E00026304653
:102C900070BDB1F5007F3AD00FDC202928D006DCCA
:102CA00001291CD004291DD0082940D11DE040294C
:102CB00021D0B1F5807F3AD126E0B1F5004F31D077
:102CC00006DCB1F5806F25D0B1F5006F2FD124E07F
:102CD000B1F5803F12D0B1F5003F28D111E0154A7F
:102CE000826025E00822C26022E01022C2601FE05C
:102CF000082202611CE01022026119E008224260F1
:102D000016E01022426013E00422426010E0042228
:102D100042600DE0042242600AE000228261042247
:102D2000426005E0002282610422426000E000BFB0
:102D300000BF70470101010010B50446FE488442FF
:102D400008D10121C014FFF7B5FA0021E014FFF704
:102D5000B1FAC4E0B4F1804F08D101210846FFF771
:102D6000B6FA00210120FFF7B2FAB8E0F348844236
:102D700008D101210220FFF7AAFA00210220FFF763
:102D8000A6FAACE0EE48844208D101210420FFF706
:102D90009EFA00210420FFF79AFAA0E0E948844255
:102DA00008D101210820FFF792FA00210820FFF73F
:102DB0008EFA94E0E448844208D101211020FFF704
:102DC00086FA00211020FFF782FA88E0DF4884426B
:102DD00008D101212020FFF77AFA00212020FFF7F7
:102DE00076FA7CE0DA48844208D101214014FFF7EA
:102DF00061FA00216014FFF75DFA70E0D548844263
:102E000009D10121C804FFF755FA00214FF4002031
:102E1000FFF750FA63E0D048844209D10121080548
:102E2000FFF748FA00214FF48010FFF743FA56E00D
:102E3000CA48844209D101214805FFF73BFA002125
:102E40004FF40010FFF736FA49E0C548844208D134
:102E500001214020FFF73BFA00214020FFF737FA1D
:102E60003DE0C048844208D101218020FFF72FFABD
:102E700000218020FFF72BFA31E0BB48844208D1C3
:102E800001218015FFF723FA0021A015FFF71FFA93
:102E900025E0B648844209D101210804FFF70AFA67
:102EA00000214FF48030FFF705FA18E0B048844263
:102EB00009D101214804FFF7FDF900214FF400304A
:102EC000FFF7F8F90BE0AB48844208D101218804F0
:102ED000FFF7F0F900214FF48020FFF7EBF910BD68
:102EE00000220288944B98420ED0994B98420BD006
:102EF000B0F1804F08D0914B984205D0904B98424A
:102F000002D0904B984204D14FF68F731A404B88F1
:102F10001A438D4B984207D08C4B984204D04FF601
:102F2000FF431A40CB881A4302808B8883850B8825
:102F30000385814B98420BD0854B984208D08B4B30
:102F4000984205D08A4B984202D08A4B984201D1D0
:102F50000B7A038601238382704770B50024002218
:102F60000023058C4FF6FE7635400584028C83885D
:102F7000048B4FF68F752C40B51E2C400D882C43CA
:102F8000751E2A400D892A434D882A436A4DA8425E
:102F90000BD06F4DA84208D0744DA84205D0744D97
:102FA000A84202D0734DA84213D14FF6F7752A40BC
:102FB0004D892A434FF6FB752A408D882A434FF6E8
:102FC000FF652B404FF6FF552B408D892B43CD8954
:102FD0002B4383800483CD888586028470BD70B5C1
:102FE000002400220023058C4FF6EF76354005843F
:102FF000028C8388048B48F6FF752C404FF6FF4502
:103000002C400D884FF6FF7606EA05252C434FF637
:10301000DF752A400D8906EA05152A434D8806EA20
:1030200005152A43444DA84202D0494DA8421DD15E
:103030004FF67F752A404D894FF6FF7606EA051553
:103040002A434FF6BF752A408D8806EA05152A43A4
:103050004FF6FF352B404FF2FF752B408D8906EA66
:1030600085052B43CD8906EA85052B4383800483A0
:10307000CD880587028470BD70B50024002200232E
:10308000058C4FF6FF6635400584028C8388848B5F
:103090004FF68F752C404FF6FC752C400D882C4355
:1030A0004FF6FF552A400D894FF6FF7606EA0525B3
:1030B0002A434D8806EA05252A431F4DA84202D01F
:1030C000234DA8421DD14FF2FF752A404D894FF67E
:1030D000FF7606EA05252A434FF6FF352A408D88FC
:1030E00006EA05252A434EF6FF752B404DF6FF757F
:1030F0002B408D8906EA05152B43CD8906EA051577
:103100002B4383808483CD888587028470BD70B50E
:10311000002200230024058C4EF6FF7635400584FE
:10312000038C8488828B48F6FF752A404FF6FF4552
:103130002A400D8820E00000002C014000040040DF
:1031400000080040000C0040001000400014004047
:1031500000340140004C0140005001400054014047
:1031600000180040001C00400020004000400140CA
:1031700000440140004801404FF6FF7606EA05256D
:103180002A434DF6FF752B400D8906EA05352B4382
:103190004D8806EA05352B43FA4DA84202D0FA4D78
:1031A000A84208D14BF6FF752C408D894FF6FF766B
:1031B00006EA85152C4384808283CD88A0F8405090
:1031C000038470BD828B4FF2FF331A408283828B5F
:1031D0004FF6FF7303EA01231A4382837047F0B569
:1031E0000C461546002200210026078C4EF6FF7C77
:1031F00007EA0C070784828B018C4FF6FF7707EAFA
:10320000043640F6FF473A404FF6FF7707EA0527B6
:103210003A434FF6FF7707EA03373A43D94FB842AC
:103220000ED0D94FB8420BD0B0F1804F08D0D74F55
:10323000B84205D0D64FB84202D0D64FB84206D1D8
:103240004DF6FF77394046F48057394305E047F69D
:10325000FF57394044F48057394382830184F0BDDD
:10326000828B4FF6F3731A408283828B0A438283E8
:103270007047F0B50C461546002200210026078C49
:103280004FF6FF6C07EA0C070784828B018C4FF620
:10329000FF7707EA04264FF60C773A404FF6FF77A0
:1032A00007EA03172F433A43B64FB8420ED0B64F42
:1032B000B8420BD0B0F1804F08D0B44FB84205D01F
:1032C000B34FB84202D0B34FB84206D14FF6FF57C2
:1032D000394046F48077394305E04FF2FF573940D3
:1032E00044F48077394382830184F0BD028B4FF22E
:1032F000FF331A400283028B4FF6FF7303EA012368
:103300001A4302837047F0B50C461546002200218F
:103310000026078C4FF6EF7C07EA0C070784028B28
:10332000018C4FF6FF7707EA041640F6FF473A4054
:103330004FF6FF7707EA03373A434FF6FF7707EA7E
:1033400005273A438F4FB8420ED08F4FB8420BD06B
:10335000B0F1804F08D08D4FB84205D08C4FB842A5
:1033600002D08C4FB84206D14FF6DF77394046F095
:103370001007394305E04FF65F77394044F01007F6
:10338000394302830184F0BD028B4FF6F3731A4078
:103390000283028B0A4302837047F0B50C46154640
:1033A00000220021068C4FF6FE773E400684028BF9
:1033B000018C4FF60C7632407E1C06EA03162E4333
:1033C0003243704EB0420ED06F4EB0420BD0B0F1CF
:1033D000804F08D06D4EB04205D06D4EB04202D045
:1033E0006C4EB04206D14FF6FD76314044F00106F6
:1033F000314305E04FF6F576314044F001063143A4
:1034000002830184F0BD70B505460C465D488542D7
:103410000ED05D4885420BD0B5F1804F08D05B4897
:10342000854205D05A48854202D05A48854200D18B
:1034300000E000BF208850B92389A288618828460F
:10344000FFF7ABFFE1882846FFF79EFF25E02088C5
:1034500004280AD12389A28861882846FFF753FFF0
:10346000E1882846FFF742FF17E0208808280AD1A4
:103470002389A28861882846FFF7FBFEE188284659
:10348000FFF7EEFE09E02389A28861882846FFF74E
:10349000A6FEE1882846FFF795FE70BD2DE9F041B4
:1034A00005460C4600260127608808B9022600E080
:1034B0000026A088012801D1022700E001272088EA
:1034C000A0B92389A28861882846FFF766FFE188B2
:1034D0002846FFF759FF23893A4631462846FFF729
:1034E00012FFE1882846FFF701FF13E02389A28835
:1034F00061882846FFF707FFE1882846FFF7F6FEB8
:1035000023893A4631462846FFF747FFE188284697
:10351000FFF73AFFBDE8F0810A884B881A438B8891
:103520001A43CB881A430B891A434B891A438B8958
:103530001A43A0F8442070474FF6FF7181800021A4
:103540000180C1804180017270470021018041806B
:103550008180C180018141818181C18170470021C9
:1035600001804180012181800021C180018170475B
:103570000021018041808180C18001814181818160
:1035800070470000002C014000340140000400405E
:1035900000080040000C004021B1028842F0010206
:1035A000028004E002884FF6FE731A4002807047E2
:1035B00031B1B0F8442042F40042A0F8442005E0C4
:1035C000B0F84420C2F30E02A0F8442070471AB1AC
:1035D00083890B43838102E083898B438381704716
:1035E0008182704741EA0203A0F8483070471AB15F
:1035F00083890B43838102E083898B4383817047F6
:1036000001894FF6F8721140018170470A46002186
:1036100001894FF68F73194011430181704730B50E
:1036200004460D4629462046FFF7F0FF208940F06A
:103630000700208130BD2DE9F04104460D461646B5
:103640001F46602D06D13B46012231462046FFF73A
:103650005AFE05E03B46012231462046FFF79DFE1B
:1036600029462046FFF7D2FF208940F0070020813D
:10367000BDE8F08130B50C4600210189C9B24FF692
:10368000FF7505EA0325154325432943018130BD14
:103690002DE9F04105460E4617469846002443465C
:1036A0003A4631462846FFF7E5FF2C894FF6F87079
:1036B000044044F007044FF68F70044044F0700457
:1036C0002C81BDE8F081F0B504460D4616461F4634
:1036D0003B46324629462046FFF7CCFF208940F47E
:1036E00080402081F0BD0185828270470A4600211A
:1036F00001884FF68F731940114301807047F0B570
:103700000C4615461E460021002200230189028B2B
:10371000038C4FF6F877394021434FF6FC473A4087
:1037200040F201173A434FF6DD773B404FF6FF7703
:1037300007EA06172F433B43018102830384F0BD50
:103740000A460021018B4FF68F7319401143018304
:1037500070470A460021018B48F6FF7319404FF667
:10376000FF7303EA02231943018370470A460021CD
:10377000818B4FF68F7319401143818370470A463E
:103780000021818B48F6FF7319404FF6FF7303EA5F
:10379000022319438183704721B1028842F08002DD
:1037A000028004E002884FF67F731A40028070475F
:1037B00021B1828842F00402828004E082884FF6C0
:1037C000FB731A408280704721B1828842F0080260
:1037D000828004E082884FF6F7731A408280704737
:1037E00021B1828842F00102828004E082884FF693
:1037F000FE731A40828070470A460021018B4FF603
:10380000F77319401143018370470A460021018B69
:103810004FF2FF7319404FF6FF7303EA0223194377
:10382000018370470A460021818B4FF6F7731940D8
:103830001143818370470A460021818B4FF2FF7349
:1038400019404FF6FF7303EA02231943818370473F
:103850000A460021018B4FF6FB7319401143018387
:1038600070470A460021018B4FF6FF3319404FF68F
:10387000FF7303EA02231943018370470A460021BC
:10388000818B4FF6FB7319401143818370470A46C1
:103890000021818B4FF6FF3319404FF6FF7303EA87
:1038A00002231943818370470A460021018B4FF69A
:1038B0007F7319401143018370470A460021018B31
:1038C000C1F30E014FF6FF7303EA0223194301838C
:1038D00070470A460021818B4FF67F7319401143D0
:1038E000818370470A460021818BC1F30E014FF698
:1038F000FF7303EA02231943818370470A460021BC
:10390000018C4FF6FD7319401143018470470A463C
:103910000021018C4FF6F773194011430184704761
:103920000A460021018C4FF6DF7319404FF6FF73F2
:1039300003EA02131943018470470A460021018CEF
:103940004FF67F7319404FF6FF7303EA02131943D2
:10395000018470470A460021018C4FF6FF5319403D
:103960004FF6FF7303EA02231943018470470A46A6
:103970000021018C4FF2FF7319404FF6FF7303EAE9
:1039800002231943018470470A460021018C4DF639
:10399000FF7319404FF6FF7303EA023319430184A2
:1039A000704730B5002301248C40A3B2048C9C43A3
:1039B0000484048C02FA01F5ADB22C43048430BDBA
:1039C00030B5002304248C40A3B2048C9C430484AF
:1039D000048C02FA01F5ADB22C43048430BD70B5FD
:1039E0000346002000241846183001258D40ACB253
:1039F0001D8CA5431D8409B1082909D100EB610084
:103A0000056825F0700505600568154305600EE042
:103A10000D1FC5F34E052844056825F4E0450560F3
:103A200005684FF6FF7606EA02263543056070BD4D
:103A300021B1028842F00202028004E002884FF6BF
:103A4000FD731A400280704721B1028842F00402DF
:103A5000028004E002884FF6FB731A400280704730
:103A600021B1828842F08002828004E082884FF691
:103A70007F731A408280704702884FF6F7731A40AE
:103A8000028002880A430280704782884FF68F7353
:103A90001A40828082880A438280704702894FF6EA
:103AA000F8731A40028102890A4302817047028931
:103AB0004FF67F731A40028102890A4302817047E0
:103AC0008184704781857047818670470187704780
:103AD00081877047A0F84010704702884FF6FF4377
:103AE0001A40028002880A43028070470146888E8D
:103AF00070470146088F70470146888F704701461E
:103B0000B1F8400070470146888C70470146088D27
:103B1000704702460020138A0B400BB1012000E0E1
:103B200000207047CA430282704730B50246002029
:103B300000230024158A05EA0103958905EA01049A
:103B400013B10CB1012000E0002030BDCA43028255
:103B50007047000001460020FE4A106800F038005F
:103B6000084310607047FB49096821F00801F94AD1
:103B7000116011460968014311607047F5490968F1
:103B800021F01001F34A11601146096801431160E8
:103B90007047F148EF494860F04848607047EE4888
:103BA000EC494860ED4848607047EA48006940F0D9
:103BB0008000E84908617047E648006940F08000ED
:103BC000E449086170470420E249C96801F0010135
:103BD00009B101200EE0DF49C96801F0040109B113
:103BE000022007E0DB49C96801F0100109B1032098
:103BF00000E00420704700B502460423FFF7E3FF0E
:103C0000034603E0FFF7DFFF0346521E012B01D1FD
:103C1000002AF7D102B90523184600BD30B5044685
:103C200004254FF43020FFF7E6FF0546042D17D199
:103C3000C848006940F00200C6490861084644616E
:103C4000006940F0400008614FF43020FFF7D3FFD7
:103C50000546C048006941F6FD710840BD4908614C
:103C6000284630BD10B504244FF43020FFF7C3FFC1
:103C70000446042C16D1B748006940F00400B54949
:103C800008610846006940F0400008614FF43020A8
:103C9000FFF7B1FF0446AF48006941F6FB710840E9
:103CA000AC490861204610BD00B502460423FFF769
:103CB0008AFF034603E0FFF786FF0346521E012BEF
:103CC00001D1002AF7D102B90523184600BD10B56D
:103CD00004244FF43020FFF7E7FF0446042C16D1EC
:103CE0009C48006940F004009A4908610846006950
:103CF00040F0400008614FF43020FFF7D5FF044644
:103D00009448006941F6FB710840924908612046D9
:103D100010BD00208F49C96901F0020109B10120DD
:103D200000E00020704730B5A5250424FFF7F1FF1F
:103D300000B100254FF43020FFF75DFF0446042C4E
:103D40003AD185488349886084488860084600697C
:103D500040F0200008610846006940F0400008611A
:103D60004FF43020FFF747FF0446042C1BD179485D
:103D7000006941F6DF71084076490861084600692C
:103D800040F01000086176480580E002FFF733FF3D
:103D90000446052C10D06F48006941F6EF710840C9
:103DA0006C49086108E0052C06D06A48006941F6B4
:103DB000EF71084067490861204630BD78B5064676
:103DC0000C46042500200090E802FFF714FF05468A
:103DD000042D24D15F48006940F001005D4908616D
:103DE0003480E802FFF707FF0546042D10D1B01C10
:103DF0000090200C00990880E802FFF7FCFE0546C1
:103E00005448006941F6FE7108405249086106E0D5
:103E10005048006941F6FE7108404E490861284645
:103E200078BD70B504460D460426F002FFF7E3FEA8
:103E30000646042E11D14748006940F0010045496B
:103E400008612580F002FFF7D6FE0646414800696A
:103E500041F6FE7108403F490861304670BD70B5BB
:103E600005460E460424E002FFF7C5FE0446042C76
:103E700017D1394837498860384888600846006952
:103E800040F0100008612E80E002FFF7B4FE044607
:103E9000052C06D02F48006941F6EF7108402D49E6
:103EA0000861204670BD2DE9F04304464FF6FF76C9
:103EB0003746B046B1460425E443E6B2C4F30727CB
:103EC000C4F307484FEA1469E802FFF794FE054679
:103ED000042D49D120481F49886020488860084641
:103EE000006940F010000861FF2E06D01C48083021
:103EF0000680E802FFF77FFE0546042D08D1FF2F5C
:103F000006D017480A300780E802FFF774FE05461E
:103F1000042D0AD1B8F1FF0F07D011480C30A0F8DA
:103F20000080E802FFF767FE0546042D0AD1B9F1CB
:103F3000FF0F07D00A480E30A0F80090E802FFF704
:103F40005AFE0546052D0FD00248006941F6EF7173
:103F5000084007E00020024023016745AB89EFCD10
:103F600000F8FF1F664908612846BDE8F08330B5B8
:103F7000054604244FF43020FFF73DFE0446042C90
:103F800041D160485E4988605F48886008460069A2
:103F900040F0200008610846006940F040000861D8
:103FA0004FF43020FFF727FE0446042C22D154485A
:103FB000006941F6DF71084051490861084600690F
:103FC00040F0100008611DB100205049088002E057
:103FD000A5204E4908804FF43020FFF70CFE044620
:103FE000052C10D04648006941F6EF71084044495D
:103FF000086108E0052C06D04148006941F6DF71F0
:1040000008403F490861204630BDF0B505460E46E0
:10401000174604243B483A4988603B488860E002E0
:10402000FFF7E9FD0446042C19D13548006940F03A
:1040300010003349086147F0F80030432843334902
:10404000891C0880E002FFF7D6FD0446052C06D047
:104050002B48006941F6EF71084029490861204664
:10406000F0BD2748C069800870472548006A70473E
:1040700000202349096801F0200109B1012000E076
:104080000020704729B11E4A126902431C4B1A6175
:1040900004E01B4A12698243194B1A6170470146BA
:1040A0000020012908D1164AD26902F001020AB1A2
:1040B000012008E0002006E0114AD2680A400AB157
:1040C000012000E0002070470D49C86070470420BF
:1040D0000B49C96801F0010109B101200EE008494E
:1040E000C96801F0040109B1022007E00449C96868
:1040F00001F0100109B1032000E004207047000026
:104100000020024023016745AB89EFCD00F8FF1F77
:104110000CB50020019000906C48006840F480309D
:104120006A49086000BF6948006800F400300090E8
:104130000198401C0190009818B90198B0F5A06F43
:10414000F1D16248006800F4003010B10120009005
:1041500001E0002000900098012843D15C480068ED
:1041600040F010005A4908600846006820F003003B
:1041700008600846006840F0020008605348406844
:10418000524948600846406848600846406840F424
:10419000806048600846406820F47C10486008460B
:1041A000406840F4E81048600846006840F08070BD
:1041B000086000BF4548006800F000700028F9D092
:1041C0004248406820F00300404948600846406883
:1041D00040F00200486000BF3C48406800F00C001E
:1041E0000828F9D10CBD10B5FFF792FF10BD10B52E
:1041F0003648006840F001003449086008464068CD
:10420000344908403149486008460068324908404E
:104210002E4908600846006820F48020086008469F
:10422000406820F4FE0048604FF41F008860FFF7EC
:10423000DAFF4FF000602949086010BD10B5002179
:1042400000200022214B5B6803F00C0121B10429FE
:1042500006D0082928D107E0214B224C236027E013
:104260001F4B204C236023E0184B5B6803F4701055
:10427000164B5B6803F48032022303EB904022B9B3
:10428000194B4343174C23600DE0104B5B6803F45C
:10429000003323B1144B4343124C236003E0104B13
:1042A0004343104C236003E00D4B0E4C236000BFD2
:1042B00000BF064B5B68C3F303130C4CE15C094B76
:1042C0001B68CB40074C236010BD0000001002406B
:1042D000002002400000FFF8FFFFF6FE08ED00E0BE
:1042E00000127A003400002000093D003800002050
:1042F0004FF0000200B5134694469646203922BF7F
:10430000A0E80C50A0E80C50B1F12001BFF4F7AFC9
:10431000090728BFA0E80C5048BF0CC05DF804EBAB
:10432000890028BF40F8042B08BF704748BF20F819
:10433000022B11F0804F18BF00F8012B7047704717
:1043400070477047754600F02BF8AE460500694689
:10435000534620F00700854618B020B5FBF722FF32
:10436000BDE820404FF000064FF000074FF0000876
:104370004FF0000B21F00701AC46ACE8C009ACE8F7
:10438000C009ACE8C009ACE8C0098D46704710B55B
:104390000446AFF300802046BDE81040FBF7EDBEB9
:1043A00000487047B800002001491820ABBEFEE766
:1043B0002600020070470000D843000800000020DB
:1043C00048000000280100082044000848000020A0
:1043D000D0060000440100080000000000000000BA
:1043E0000000000000000000001F000000000000AE
:1043F00000000000000000000000010203040102B0
:1044000003040607080902040608000000A24A0483
:104410000000000000000000010203040607080974
:040000050800018965
:00000001FF
